S01A000045534535313946696E616C50726F6A6563742E73726563CD
S11300000C9434000C9451000C9451000C94510045
S11300100C9451000C9451000C9451000C94510018
S11300200C9451000C9451000C9451000C94F60063
S11300300C9451000C9451000C9451000C945100F8
S11300400C9451000C9451000C9451000C945100E8
S11300500C9451000C9475030C9451000C945100B1
S11300600C9451000C94510011241FBECFEFD8E022
S1130070DEBFCDBF11E0A0E0B1E0E8E7F9E002C0E7
S113008005900D92AC30B107D9F721E0ACE0B1E0B6
S113009001C01D92A435B207E1F70E9434040C9408
S11300A0BA040C940000CF93DF939C01FB01DC01A4
S11300B01196CD91DC911297D383C2838C819D815B
S11300C0958384838C819D81DC0113967C936E934C
S11300D012977D836C8331872087F90180818F5F3C
S11300E08083DF91CF910895CF93DF93FC01A085A6
S11300F0B185C281D381848195819D838C83C481A0
S1130100D581828193819B838A8311968D919C9161
S11301101297E817F90731F48481958112969C931C
S11301208E931197118610868C9181508C93DF9158
S1130130CF9108950F920FB6F8940F921F92112445
S11301402F923F924F925F926F927F928F929F92E3
S1130150AF92BF92CF92DF92EF92FF920F931F93D1
S11301602F933F934F935F936F937F938F939F93BB
S1130170AF93BF93CF93DF93EF93FF93A0913B0192
S1130180B0913C010DB60D920EB60D920E9418016D
S113019081110E94D401A0913B01B0913C01CD9109
S11301A0CDBFDD91DEBFFF91EF91DF91CF91BF9184
S11301B0AF919F918F917F916F915F914F913F91FB
S11301C02F911F910F91FF90EF90DF90CF90BF90F0
S11301D0AF909F908F907F906F905F904F903F90E3
S11301E02F901F900F900FBE0F9008950E949A00B9
S11301F01895E0911501F09116018081811107C0D5
S11302008FEF9FEF90930101809300010895E09197
S11302101501F09116010580F681E02D0680F78125
S1130220E02D8281938190930101809300010895D0
S1130230DF92EF92FF920F931F93CF93DF938091FE
S11302400C01811199C080911101909112010196C4
S11302509093120180931101E0901101F09012012A
S1130260E114F104B9F480911501909116012091E3
S113027013013091140130931601209315019093CA
S113028014018093130180910D018F5F80930D0100
S11302900E94F9008091000190910101E816F9068D
S11302A028F4D12C53C0DD24D39401C0D12CE09187
S11302B01501F09116018081811107C08FEF9FEF26
S11302C0909301018093000141C0E0911501F091E8
S11302D016010580F681E02DC681D7818A819B8134
S11302E0E816F90628F490930101809300012EC0CA
S11302F08E010E5F1F4FC8010E9474008C899D8976
S1130300892B21F0CE010C960E9474008E89909165
S11303101001981710F48093100190E09C01220FB3
S1130320331F220F331F220F331F820F931FB80175
S1130330895E9E4F0E9453009E89E0913B01F0919B
S11303403C018689981708F0AECFB1CFE0913B010C
S1130350F0913C01868990E0FC01EE0FFF1FEE0F47
S1130360FF1FEE0FFF1F8E0F9F1FFC01E95EFE4F64
S11303708081823040F409C080910F018F5F8093A7
S11303800F01D12C02C0DD24D39480910E01882367
S113039011F0DD24D3948D2DDF91CF911F910F9116
S11303A0FF90EF90DF90089580910C01882321F055
S11303B081E080930E01089510920E0105C0809192
S11303C010018150809310018091100190E0FC0194
S11303D0EE0FFF1FEE0FFF1FEE0FFF1F8E0F9F1F6D
S11303E0FC01E95EFE4F8081882349F3809110016E
S11303F090E09C01220F331F220F331F220F331F63
S1130400280F391FD901A95EBE4F1196ED91FC91B9
S113041012970280F381E02D1296FC93EE931197CC
S1130420265E3E4FE217F30729F422813381FD0152
S113043032832183FC01EE0FFF1FEE0FFF1FEE0F2F
S1130440FF1F8E0F9F1FFC01E95EFE4F0180F281AA
S1130450E02D8681978190933C0180933B01089520
S11304604E99FECFF89421E040E050E0BA0127C055
S11304708BB180628BB90000440F551F661F771F34
S11304808BB18F7D8BB900004E9B04C04F5F5F4FD3
S11304906F4F7F4F9F5F01C090E0983148F36058E1
S11304A090E008C08BB180628BB900008BB18F7D66
S11304B08BB99F5F8091450120E0981798F3211133
S11304C0EBCF7894CB01BA0108958130910521F4E2
S11304D081E08093450110C08330910521F483E0CD
S11304E08093450109C0029721F482E0809345017D
S11304F003C081E0809345018BB18F7D8BB90E944D
S11305003002089560934101709342018093430146
S113051090934401089560933D0170933E0180934C
S11305203F019093400108958F929F92AF92BF92A2
S1130530CF92DF92EF92FF920F931F934A015B01D8
S1130540680179019AB190629AB99BB19F7D9BB978
S11305509AB19F7B9AB990E00E946502C501B401EB
S11305600E948202C701B6010E948B021F910F9163
S1130570FF90EF90DF90CF90BF90AF909F908F90BF
S113058008951092C50087E68093C40088E18093A3
S1130590C100E2ECF0E086E08083808188608083A3
S11305A008958AB180618AB984B1826084B9A0E86F
S11305B0B0E08C9182608C93E1E8F0E08081886007
S11305C080838081806180838C9180688C9380811A
S11305D0826080838FE39CE99093870080938600F8
S11305E08FEB92E1909389008093880008954F9255
S11305F05F926F927F92AF92BF92CF92DF92EF920F
S1130600FF920F931F93CF93DF93CDB7DEB72901EA
S11306103A019B01AC012419350946095709898916
S11306209A89AB89BC89BC01CD016A197B098C0903
S11306309D090E944F04A801970124193509460910
S113064057090E945F04A20EB31EBB201CF4B19490
S1130650A194B108B501BB0C880B990BDF91CF9124
S11306601F910F91FF90EF90DF90CF90BF90AF90CC
S11306707F906F905F904F900895E4E6F0E0808162
S11306808E7F8083ACE7B0E08C9180648C938C91F6
S11306908F778C93EAE7F0E08081816080838081AA
S11306A0826080838081846080838C91887F8C9336
S11306B0808180628083ABE7B0E08C918E7F8C93E5
S11306C08C918D7F8C938C918B7F8C93AEE7B0E073
S11306D08C9181608C938081806880838081886024
S11306E0808380818064808308951F920F920FB667
S11306F00F921124AF92BF92CF92DF92EF92FF92AA
S11307000F931F932F933F934F935F936F937F9315
S11307108F939F93AF93BF93CF93DF93EF93FF9305
S1130720C0914601D0914701209749F48091780007
S11307309091790090935301809352013DC0C13050
S1130740D10549F4809178009091790090935101FA
S11307508093500131C0C230D10571F58091780089
S11307609091790090934D0180934C0160914C01DC
S113077070914D0180E090E01F921F921F9224E639
S11307802F93A12CB12C65011CE2E12EFF24F394DC
S113079000E010E020E732E040E050E00E94F70281
S11307A00F900F900F900F90609348017093490140
S11307B080934A0190934B012196D0934701C093B3
S11307C04601239724F0109247011092460180912C
S11307D0460190914701009731F4ECE7F0E0808105
S11307E0887F808312C08130910539F4ECE7F0E012
S11307F08081887F8160808308C0029731F4ECE7B0
S1130800F0E08081887F82608083809152019091A2
S113081053012091500130915101821B930B9C0193
S113082022F422273327281B390B30934F012093BE
S11308304E01FF91EF91DF91CF91BF91AF919F91C5
S11308408F917F916F915F914F913F912F911F9164
S11308500F91FF90EF90DF90CF90BF90AF900F90EB
S11308600FBE0F901F9018950E94D1020E94C102E2
S11308700E943D0300910601109107012091080197
S113088030910901409102015091030160910401EA
S11308907091050180910A010E949402FFCFDB014F
S11308A08F939F930E947E04BF91AF91A29F800D6E
S11308B0911DA39F900DB29F900D11240895052EB4
S11308C097FB1EF400940E94760457FD07D00E9403
S11308D0890407FC03D04EF40C947604509540959B
S11308E0309521953F4F4F4F5F4F089590958095D8
S11308F0709561957F4F8F4F9F4F08950E94AB0471
S1130900A59F900DB49F900DA49F800D911D11245F
S11309100895A1E21A2EAA1BBB1BFD010DC0AA1F3C
S1130920BB1FEE1FFF1FA217B307E407F50720F054
S1130930A21BB30BE40BF50B661F771F881F991FCF
S11309401A9469F760957095809590959B01AC0118
S1130950BD01CF010895A29FB001B39FC001A39F21
S1130960700D811D1124911DB29F700D811D1124E4
S10B0970911D0895F894FFCFD6
S10F0978FFFF7A65C648A49183000100CB
S9030000FC
