S01A000045534535313946696E616C50726F6A6563742E73726563CD
S11300000C94B1000C94CE000C94CE000C94CE0051
S11300100C94CE000C94CE000C94CE000C94CE0024
S11300200C94CE000C94CE000C94CE000C94CE0014
S11300300C94CE000C94CE000C94CE000C94CE0004
S11300400C94CE000C94CE000C94CE000C94CE00F4
S11300500C94CE000C945F020C94CE000C94CE0051
S11300600C94CE000C94CE0000407A10F35A00A0F9
S1130070724E18090010A5D4E80000E8764817006D
S113008000E40B54020000CA9A3B000000E1F505AD
S1130090000080969800000040420F000000A086F7
S11300A001000000102700000000E8030000000029
S11300B06400000000000A000000000001000000CD
S11300C000002C76D888DC674F0823DFC1DFAE59E7
S11300D0E1B1B796E5E3E453C63AE651997696E87A
S11300E0E6C28426EB898C9B62ED407C6FFCEFBCFE
S11300F09C9F40F2BAA56FA5F490055A2AF75C9329
S11301006B6CF9676DC11BFCE0E40D47FEF520E65E
S1130110B500D0ED902E0300943577050080841E41
S1130120080000204E0A000000C80C333333330F9C
S1130130986E12831141EF8D2114893BE65516CF39
S1130140FEE6DB18D1844B381BF77C1D901DA4BB45
S1130150E424203284725E228100C9F124ECA1E5FA
S11301603D2711241FBECFEFD8E0DEBFCDBF11E085
S1130170A0E0B1E0E8EAF5E102C005900D92A033F9
S1130180B107D9F721E0A0E3B1E001C01D92A33C7F
S1130190B207E1F70E9478030C94D20A0C94000091
S11301A04E99FECFF89421E040E050E0BA0127C018
S11301B08BB180628BB90000440F551F661F771FF7
S11301C08BB18F7D8BB900004E9B04C04F5F5F4F96
S11301D06F4F7F4F9F5F01C090E0983148F36058A4
S11301E090E008C08BB180628BB900008BB18F7D29
S11301F08BB99F5F8091380120E0981798F3211103
S1130200EBCF7894CB01BA0108958F929F92AF926D
S1130210BF92CF92DF92EF92FF920E94D0004B01E7
S11302205C016091300170913101809132019091B3
S113023033010E947B046B017C01C501B4010E945F
S11302407B04A70196010E949503FF90EF90DF9035
S1130250CF90BF90AF909F908F9008950E9405011A
S1130260209134013091350140913601509137018C
S11302700E94070408958130910521F481E0809360
S1130280380110C08330910521F483E08093380154
S113029009C0029721F482E08093380103C081E011
S11302A0809338018BB18F7D8BB90E94D000089563
S11302B06093340170933501809336019093370134
S11302C008956093300170933101809332019093CB
S11302D0330108958F929F92AF92BF92CF92DF9293
S11302E0EF92FF920F931F934A015B01680179011A
S11302F09AB190629AB99BB19F7D9BB99AB19F7B49
S11303009AB990E00E943B01C501B4010E945801D2
S1130310C701B6010E9461011F910F91FF90EF90F8
S1130320DF90CF90BF90AF909F908F9008951092E0
S1130330C50087E68093C40088E18093C100E2ECA5
S1130340F0E086E0808380818860808308959091C6
S1130350C00095FFFCCF8093C6000895CF93DF9330
S1130360EC0103C021960E94A70188818111FACF74
S1130370DF91CF9108958AB180618AB984B1826096
S113038084B9A0E8B0E08C9182608C93E1E8F0E05D
S11303908081886080838081806180838C91806883
S11303A08C938081826080838FE39CE990938700A3
S11303B0809386008FEB92E190938900809388006C
S11303C008954F925F926F927F92AF92BF92CF92B5
S11303D0DF92EF92FF920F931F93CF93DF93CDB7EA
S11303E0DEB729013A019B01AC01241935094609FC
S11303F0570989899A89AB89BC89BC01CD016A19DD
S11304007B098C099D090E942B05A80197012419D9
S11304103509460957090E943B05A20EB31EBB20AD
S11304201CF4B194A194B108B501BB0C880B990BD1
S1130430DF91CF911F910F91FF90EF90DF90CF90BC
S1130440BF90AF907F906F905F904F900895E4E6D7
S1130450F0E080818E7F8083ACE7B0E08C91806493
S11304608C938C918F778C93EAE7F0E080818160A4
S113047080838081826080838081846080838C918A
S1130480887F8C93808180628083ABE7B0E08C911D
S11304908E7F8C938C918D7F8C938C918B7F8C939E
S11304A0AEE7B0E08C9181608C938081806880831A
S11304B080818860808380818064808308951F9216
S11304C00F920FB60F921124AF92BF92CF92DF9288
S11304D0EF92FF920F931F932F933F934F935F934A
S11304E06F937F938F939F93AF93BF93CF93DF9338
S11304F0EF93FF93C0913901D0913A01209749F4C9
S1130500809178009091790090934A0180934901F9
S11305103DC0C130D10549F48091780090917900B3
S1130520909348018093470131C0C230D10571F5E1
S113053080917800909179009093440180934301D5
S1130540609143017091440180E090E01F921F92FA
S11305501F9224E62F93A12CB12C65011CE2E12EFD
S1130560FF24F39400E010E020E732E040E050E0A4
S11305700E94E1010F900F900F900F9060933F0144
S11305807093400180934101909342012196D0934E
S11305903A01C0933901239724F010923A01109242
S11305A039018091390190913A01009731F4ECE7D7
S11305B0F0E08081887F808312C08130910539F416
S11305C0ECE7F0E08081887F8160808308C0029737
S11305D031F4ECE7F0E08081887F82608083809151
S11305E0490190914A012091470130914801821BB1
S11305F0930B9C0122F422273327281B390B3093B9
S1130600460120934501FF91EF91DF91CF91BF9176
S1130610AF919F918F917F916F915F914F913F9196
S11306202F911F910F91FF90EF90DF90CF90BF908B
S1130630AF900F900FBE0F901F901895CF92DF923E
S1130640EF92FF920F931F930E942E016B017C0186
S113065060933B0170933C0180933D0190933E0174
S113066020E030E0A9010E940204882364F4F7FA30
S1130670F094F7F8F094C0923B01D0923C01E092E0
S11306803D01F0923E0160913B0170913C018091EB
S11306903D0190913E010FE511E022E043E00E940C
S11306A09605C8019F930F938FE191E09F938F93D9
S11306B08BE491E09F938F930E94B6058BE491E0C5
S11306C00E94AE012FEF89E698E1215080409040CE
S11306D0E1F700C000000F900F900F900F900F9063
S11306E00F901F910F91FF90EF90DF90CF9008959E
S11306F00E94BB010E9497010E94270200910401FD
S113070010910501209106013091070140910001EB
S113071050910101609102017091030180910801DF
S11307200E946A010E941E03FDCF5058BB27AA27CE
S11307300E94AD030C94F1040E94E30438F00E947B
S1130740EA0420F039F49F3F19F426F40C94E004F1
S11307500EF4E095E7FB0C94DA04E92F0E940205FD
S113076058F3BA17620773078407950720F079F4E2
S1130770A6F50C9424050EF4E0950B2EBA2FA02DAB
S11307800B01B90190010C01CA01A0011124FF273A
S1130790591B99F0593F50F4503E68F11A16F04035
S11307A0A22F232F342F4427585FF3CF4695379534
S11307B02795A795F0405395C9F77EF41F16BA0BF9
S11307C0620B730B840BBAF09150A1F0FF0FBB1FA7
S11307D0661F771F881FC2F70EC0BA0F621F731FF0
S11307E0841F48F4879577956795B795F7959E3F4D
S11307F008F0B0CF9395880F08F09927EE0F9795DE
S1130800879508950E94B60408F481E008950E9433
S11308101B040C94F1040E94EA0458F00E94E304BF
S113082040F029F45F3F29F00C94DA0451110C9440
S113083025050C94E0040E94020568F39923B1F3A2
S1130840552391F3951B550BBB27AA2762177307F2
S1130850840738F09F5F5F4F220F331F441FAA1F86
S1130860A9F335D00E2E3AF0E0E832D09150504042
S1130870E695001CCAF72BD0FE2F29D0660F771FF0
S1130880881FBB1F261737074807AB07B0E809F0D6
S1130890BB0B802DBF01FF2793585F4F3AF09E3F5B
S11308A0510578F00C94DA040C9425055F3FE4F3C9
S11308B0983ED4F3869577956795B795F7959F5F9E
S11308C0C9F7880F911D9695879597F90895E1E0EA
S11308D0660F771F881FBB1F621773078407BA0749
S11308E020F0621B730B840BBA0BEE1F88F7E095A4
S11308F00895E89409C097FB3EF49095809570950F
S113090061957F4F8F4F9F4F9923A9F0F92F96E957
S1130910BB279395F695879577956795B795F111CC
S1130920F8CFFAF4BB0F11F460FF1BC06F5F7F4F69
S11309308F4F9F4F16C0882311F096E911C077237B
S113094021F09EE8872F762F05C0662371F096E884
S1130950862F70E060E02AF09A95660F771F881F53
S1130960DAF7880F9695879597F90895990F0008F7
S1130970550FAA0BE0E8FEEF16161706E807F9076D
S1130980C0F012161306E407F50798F0621B730B08
S1130990840B950B39F40A2661F0232B242B252B89
S11309A021F408950A2609F4A140A6958FEF811D2C
S11309B0811D089597F99F6780E870E060E00895CD
S11309C09FEF80EC089500240A9416161706180663
S11309D00906089500240A9412161306140605063F
S11309E00895092E0394000C11F4882352F0BB0FD0
S11309F040F4BF2B11F460FF04C06F5F7F4F8F4F33
S1130A009F4F089557FD9058440F551F59F05F3F6D
S1130A1071F04795880F97FB991F61F09F3F79F01C
S1130A2087950895121613061406551FF2CF46959E
S1130A30F1DF08C0161617061806991FF1CF869520
S1130A407105610508940895E894BB276627772704
S1130A50CB0197F90895DB018F939F930E945A0568
S1130A60BF91AF91A29F800D911DA39F900DB29F46
S1130A70900D11240895052E97FB1EF400940E94F6
S1130A80520557FD07D00E94650507FC03D04EF4BC
S1130A900C94520550954095309521953F4F4F4FFA
S1130AA05F4F089590958095709561957F4F8F4F16
S1130AB09F4F08950E948705A59F900DB49F900DA8
S1130AC0A49F800D911D11240895A1E21A2EAA1B42
S1130AD0BB1BFD010DC0AA1FBB1FEE1FFF1FA217EA
S1130AE0B307E407F50720F0A21BB30BE40BF50BE7
S1130AF0661F771F881F991F1A9469F76095709570
S1130B00809590959B01AC01BD01CF010895A29FF2
S1130B10B001B39FC001A39F700D811D1124911DCD
S1130B20B29F700D811D1124911D0895EF920F93B2
S1130B301F93CF93DF93E80147FD02C034E001C067
S1130B4034E1042E000C550B57FF03C05195419519
S1130B505109E32E022F242FAE010E94B907CE01C2
S1130B60DF91CF911F910F91EF900895AEE0B0E027
S1130B70ECEBF5E00C94A90A0D891E8986E08C83C0
S1130B801A8309838FEF9FE79E838D83AE01475EAF
S1130B905F4F6F89788DCE0101960E94D805EF8151
S1130BA0F885E00FF11F10822E96E4E00C94C50A3C
S1130BB0ABE0B0E0EEEDF5E00C949B0A6C017B0138
S1130BC08A01FC0117821682838181FFCCC1CE0188
S1130BD001963C01F6019381F70193FD859193FF02
S1130BE081917F01882309F4BAC1853239F493FDD8
S1130BF0859193FF81917F01853229F4B60190E0BC
S1130C000E94010AE7CF912C212C312CFFE1F3152E
S1130C10D8F08B3279F038F4803279F08332A1F451
S1130C20232D20611DC08D3261F0803369F4232DA2
S1130C30216016C0832D8260382EE32DE4603E2EA1
S1130C402AC0F32DF8601DC037FC2DC020ED280FFD
S1130C502A3040F08E32B9F436FC81C1232D206451
S1130C60322E19C036FE06C08AE0989E200D11244B
S1130C70922E11C0EAE02E9E200D1124222EF32D77
S1130C80F0623F2E08C08C3621F4832D8068382E04
S1130C9002C0883641F4F70193FD859193FF819159
S1130CA07F018111B3CF982F9F7D9554933028F401
S1130CB00C5F1F4F9FE399830DC0833631F0833758
S1130CC071F0833509F059C021C0F801808189830E
S1130CD00E5F1F4F88248394912C530113C0280165
S1130CE0F2E04F0E511CF801A080B18036FE03C023
S1130CF0692D70E002C06FEF7FEFC5010E94F60915
S1130D004C018201F32DFF773F2E16C0280122E00B
S1130D10420E511CF801A080B18036FE03C0692D3B
S1130D2070E002C06FEF7FEFC5010E94EB094C0138
S1130D30F32DF0683F2E820133FC1BC0822D90E01E
S1130D4088169906B0F4B60180E290E00E94010A88
S1130D502A94F4CFF50137FC859137FE81915F0128
S1130D60B60190E00E94010A21102A9421E0821A1F
S1130D7091088114910471F7E8C0843611F0893622
S1130D8041F5F80137FE07C060817181828193814A
S1130D900C5F1F4F08C060817181072E000C880B07
S1130DA0990B0E5F1F4FF32DFF763F2E97FF09C05F
S1130DB090958095709561957F4F8F4F9F4FF06808
S1130DC03F2E2AE030E0A3010E943D0A882E8618B7
S1130DD045C0853731F4232D2F7EB22E2AE030E032
S1130DE025C0932D997FB92E8F36C1F018F488351C
S1130DF079F0B5C0803719F0883721F0B0C0E92FF9
S1130E00E061BE2EB4FE0DC0FB2DF460BF2E09C000
S1130E1034FE0AC0292F2660B22E06C028E030E036
S1130E2005C020E130E002C020E132E0F801B7FE65
S1130E3007C060817181828193810C5F1F4F06C05E
S1130E406081718180E090E00E5F1F4FA3010E94DA
S1130E503D0A882E8618FB2DFF773F2E36FE0DC0E7
S1130E60232D2E7FA22E891458F434FE0BC032FC9D
S1130E7009C0832D8E7EA82E05C0B82CA32C03C0D8
S1130E80B82C01C0B92CA4FE0FC0FE01E80DF11D61
S1130E908081803321F49A2D997EA92E09C0A2FE67
S1130EA006C0B394B39404C08A2D867809F0B39431
S1130EB0A3FC11C0A0FE06C0B21488F4280C922C26
S1130EC09B180EC0B21460F4B60180E290E00E9458
S1130ED0010AB394F7CFB21418F42B1802C0982C5B
S1130EE0212CA4FE10C0B60180E390E00E94010A08
S1130EF0A2FE17C0A1FC03C088E790E002C088E509
S1130F0090E0B6010CC08A2D867859F0A1FE02C08B
S1130F108BE201C080E2A7FC8DE2B60190E00E9462
S1130F20010A891438F4B60180E390E00E94010AB2
S1130F309A94F7CF8A94F301E80DF11D8081B601EC
S1130F4090E00E94010A8110F5CF222009F442CEDC
S1130F50B60180E290E00E94010A2A94F6CFF601DD
S1130F608681978102C08FEF9FEF2B96E2E10C946C
S1130F70B70AA9E0B0E0EFEBF7E00C94A10A6A012C
S1130F80122FB02E2BE3201720F0FF24F394F00E41
S1130F9002C02CE3F22E0F2D27E0AE014F5F5F4F0E
S1130FA00E941309BC014981842F8970813031F07A
S1130FB0E1FC06C0E0FE06C090E205C09DE203C06D
S1130FC09BE201C090E05E2D507143FF3CC0911143
S1130FD002C083E001C084E0811718F4212F281B8C
S1130FE001C020E051110BC0F601822F30E28823AA
S1130FF019F031938150FBCFC20ED11C20E099230C
S113100029F0D6019C93F60131966F01C60103962F
S1131010E2FE0AC03EE4D6013C9341E411964C93AF
S1131020119712963C9306C03EE6F601308341E6E2
S113103041833283FC01322F40E2332309F442C05E
S113104041933150FACF42FF44C0911102C083E072
S113105001C084E0811718F4212F281B01C020E06F
S113106051110BC0F601822F30E2882319F031931D
S11310708150FBCFC20ED11C20E0992329F0D60168
S11310809C93F60131966F01C6010396E2FE0BC0F4
S113109039E4D6013C933EE411963C93119736E42F
S11310A012963C9307C039E6F60130833EE631835D
S11310B036E63283FC01322F40E2332319F04193A8
S11310C03150FBCFFC01E20FF11D10828EEF9FEF38
S11310D0A6C021E030E0911102C020E030E01616F5
S11310E017061CF4FB01319602C0E1E0F0E02E0F7C
S11310F03F1FBB2021F0EB2DF0E0319602C0E0E071
S1131100F0E02E0F3F1FE12FF0E02E173F071CF4F5
S1131110121B212F01C020E08E2D887159F4F60195
S1131120822F30E2882319F031938150FBCFC20E15
S1131130D11C20E0992329F0D6019C93F601319625
S11311406F0151110BC0F601822F90E3882319F02F
S113115091938150FBCFC20ED11C20E00F2D060FBE
S11311609A81342F307144FF03C0913309F4015044
S1131170101624F4093018F008E001C001E0AB01B6
S113118077FF02C040E050E0FB01E41BF50BA1E057
S1131190B0E0AC0FBD1FEA0FFB1F8EE2A82E4B017F
S11311A0801A91080B2D10E01195019511094F3FFC
S11311B0BFEF5B0721F4D601AC9211966D01641761
S11311C075072CF08416950614F4818101C080E320
S11311D0415051093196D60111967D0140175107AE
S11311E024F0D6018C936701E2CF6417750739F4B4
S11311F0963320F4953319F4311101C081E3F601DB
S11312008083F701822F90E2882319F09193815013
S1131210FBCFF701E20FF11D108280E090E02996E8
S1131220ECE00C94BD0A283008F027E03327DA01FB
S1131230990F311D87FD916000966105710539F4A0
S113124032602E5F3D9330E32A95E1F708959F3F86
S113125030F080387105610509F03C5F3C5F3D93D7
S1131260913008F08068911DDF93CF931F930F9303
S1131270FF92EF92192F987F9695E92F9695969560
S1131280E90FFF27EE53FF4F99273327EE24FF245E
S1131290A701E70105900894079428F4360FE71E88
S11312A0F81E491F511D660F771F881F991F06944A
S11312B0A1F70590079428F4E70EF81E491F561F5E
S11312C0C11D770F881F991F661F0694A1F705900B
S11312D0079428F4F80E491F561FC71FD11D880F05
S11312E0991F661F771F0694A1F70590079420F4B1
S11312F0490F561FC71FD81F990F661F771F881FD6
S11313000694A9F784911095177041F0D695C79566
S113131057954795F794E7941A95C1F7E8E6F0E0F6
S113132068941590159135916591959105907FE29A
S11313307395E118F10A430B560BC90BD009C0F79A
S1131340E10CF11E431F561FC91FD01D7EF47033DC
S113135011F48A95E6CFE894015030F0080F0AF4AE
S11313600027021708F4202F2395022F7A3328F040
S113137079E37D932A95E9F710C07D932A9589F640
S1131380069497956795379517951794E118F10A80
S1131390430B560BC90BD00998F023957E91739596
S11313A07A3308F070E37C932013B8F77E91706170
S11313B07D9330F0839571E37D9370E32A95E1F793
S11313C01124EF90FF900F911F91CF91DF919927F6
S11313D087FD90950895FC010590615070400110BF
S11313E0D8F7809590958E0F9F1F0895FC0161504A
S11313F0704001900110D8F7809590958E0F9F1F33
S113140008950F931F93CF93DF93FB01238121FD55
S113141003C08FEF9FEF2CC022FF16C04681578177
S1131420248135814217530744F4A081B1819D0181
S11314302F5F3F4F318320838C93268137812F5F29
S11314403F4F3783268314C08B01EC01FB010084DA
S1131450F185E02D0995892BE1F6D80116968D9139
S11314609C911797019617969C938E931697CE018D
S1131470DF91CF911F910F910895FA01AA27283087
S113148051F1203181F1E8946F936E7F6E5F7F4F4D
S11314908F4F9F4FAF4FB1E03ED0B4E03CD0670FC9
S11314A0781F891F9A1FA11D680F791F8A1F911D1C
S11314B0A11D6A0F711D811D911DA11D20D009F46C
S11314C068943F912AE0269F11243019305D3193AE
S11314D0DEF6CF010895462F4770405D4193B3E097
S11314E00FD0C9F7F6CF462F4F70405D4A3318F03E
S11314F0495D31FD4052419302D0A9F7EACFB4E0EF
S1131500A6959795879577956795BA95C9F70097A6
S11315106105710508959B01AC010A2E0694579547
S1131520479537952795BA95C9F7620F731F841F9E
S1131530951FA01D08952F923F924F925F926F9234
S11315407F928F929F92AF92BF92CF92DF92EF924F
S1131550FF920F931F93CF93DF93CDB7DEB7CA1BD0
S1131560DB0B0FB6F894DEBF0FBECDBF09942A88FB
S1131570398848885F846E847D848C849B84AA84A3
S1131580B984C884DF80EE80FD800C811B81AA8130
S1131590B981CE0FD11D0FB6F894DEBF0FBECDBFFB
S10B15A0ED010895F894FFCF5A
S11315A87A65C648A4918300014E656761746976BB
S11315B8650A0D00506F7369746976650A0D0057E2
S11315C865696768743A202573206B670A0D000003
S9030000FC
