S01A000045534535313946696E616C50726F6A6563742E73726563CD
S11300000C94B1000C94CE000C94CE000C94CE0051
S11300100C94CE000C94CE000C94CE000C94CE0024
S11300200C94CE000C94CE000C94CE000C9473016E
S11300300C94CE000C94CE000C94CE000C94CE0004
S11300400C94CE000C94CE000C94CE000C94CE00F4
S11300500C94CE000C94CE000C94CE000C94CE00E4
S11300600C94CE000C94CE0000407A10F35A00A0F9
S1130070724E18090010A5D4E80000E8764817006D
S113008000E40B54020000CA9A3B000000E1F505AD
S1130090000080969800000040420F000000A086F7
S11300A001000000102700000000E8030000000029
S11300B06400000000000A000000000001000000CD
S11300C000002C76D888DC674F0823DFC1DFAE59E7
S11300D0E1B1B796E5E3E453C63AE651997696E87A
S11300E0E6C28426EB898C9B62ED407C6FFCEFBCFE
S11300F09C9F40F2BAA56FA5F490055A2AF75C9329
S11301006B6CF9676DC11BFCE0E40D47FEF520E65E
S1130110B500D0ED902E0300943577050080841E41
S1130120080000204E0A000000C80C333333330F9C
S1130130986E12831141EF8D2114893BE65516CF39
S1130140FEE6DB18D1844B381BF77C1D901DA4BB45
S1130150E424203284725E228100C9F124ECA1E5FA
S11301603D2711241FBECFEFD8E0DEBFCDBF11E085
S1130170A0E0B1E0E8EFF2E202C005900D92A238EF
S1130180B107D9F722E0A2E8B1E001C01D92A53B76
S1130190B207E1F70E9439090C947A110C9400001B
S11301A0CF93DF939C01FB01DC011196CD91DC918F
S11301B01297D383C2838C819D81958384838C81A0
S11301C09D81DC0113967C936E9312977D836C83DF
S11301D031872087F90180818F5F8083DF91CF9100
S11301E00895CF93DF93FC01A085B185C281D381AB
S11301F0848195819D838C83C481D58182819381FF
S11302009B838A8311968D919C911297E817F90725
S113021031F48481958112969C938E931197118663
S113022010868C9181508C93DF91CF9108950F9219
S11302300FB6F8940F921F9211242F923F924F926F
S11302405F926F927F928F929F92AF92BF92CF9262
S1130250DF92EF92FF920F931F932F933F934F934D
S11302605F936F937F938F939F93AF93BF93CF933A
S1130270DF93EF93FF93A091B101B091B2010DB65A
S11302800D920EB60D920E94950181110E945102A9
S1130290A091B101B091B201CD91CDBFDD91DEBF8E
S11302A0FF91EF91DF91CF91BF91AF919F918F918A
S11302B07F916F915F914F913F912F911F910F917A
S11302C0FF90EF90DF90CF90BF90AF909F908F9072
S11302D07F906F905F904F903F902F901F900F9062
S11302E00FBE0F9008950E9417011895E0918B019D
S11302F0F0918C018081811107C08FEF9FEF909363
S11303000101809300010895E0918B01F0918C012B
S11303100580F681E02D0680F781E02D82819381AE
S113032090930101809300010895DF92EF92FF9270
S11303300F931F93CF93DF9380918201811199C012
S11303408091870190918801019690938801809310
S11303508701E0908701F0908801E114F104B9F479
S113036080918B0190918C012091890130918A01B7
S113037030938C0120938B0190938A01809389019F
S1130380809183018F5F809383010E947601809125
S1130390000190910101E816F90628F4D12C53C00C
S11303A0DD24D39401C0D12CE0918B01F0918C0118
S11303B08081811107C08FEF9FEF9093010180939B
S11303C0000141C0E0918B01F0918C010580F68120
S11303D0E02DC681D7818A819B81E816F90628F42D
S11303E090930101809300012EC08E010E5F1F4F78
S11303F0C8010E94F1008C899D89892B21F0CE01CE
S11304000C960E94F1008E8990918601981710F441
S11304108093860190E09C01220F331F220F331F2B
S1130420220F331F820F931FB80183579E4F0E94E0
S1130430D0009E89E091B101F091B20186899817AC
S113044008F0AECFB1CFE091B101F091B20186894D
S113045090E0FC01EE0FFF1FEE0FFF1FEE0FFF1FDA
S11304608E0F9F1FFC01E357FE4F8081823040F4C2
S113047009C0809185018F5F80938501D12C02C0D2
S1130480DD24D39480918401882311F0DD24D39456
S11304908D2DDF91CF911F910F91FF90EF90DF9001
S11304A0089580918201882321F081E08093840162
S11304B008951092840105C0809186018150809333
S11304C086018091860190E0FC01EE0FFF1FEE0F84
S11304D0FF1FEE0FFF1F8E0F9F1FFC01E357FE4F00
S11304E08081882349F38091860190E09C01220F4A
S11304F0331F220F331F220F331F280F391FD90137
S1130500A357BE4F1196ED91FC9112970280F3818F
S1130510E02D1296FC93EE93119720573E4FE2176D
S1130520F30729F422813381FD0132832183FC0105
S1130530EE0FFF1FEE0FFF1FEE0FFF1F8E0F9F1F0B
S1130540FC01E357FE4F0180F281E02D8681978103
S11305509093B2018093B10108954E99FECFF8941F
S113056021E040E050E0BA0127C08BB180628BB932
S11305700000440F551F661F771F8BB18F7D8BB909
S113058000004E9B04C04F5F5F4F6F4F7F4F9F5FD4
S113059001C090E0983148F3605890E008C08BB1F6
S11305A080628BB900008BB18F7D8BB99F5F809186
S11305B0BB0120E0981798F32111EBCF7894CB017D
S11305C0BA0108958F929F92AF92BF92CF92DF9219
S11305D0EF92FF920E94AD024B015C016091B30166
S11305E07091B4018091B5019091B6010E948E0A78
S11305F06B017C01C501B4010E948E0AA70196011A
S11306000E94A809FF90EF90DF90CF90BF90AF9029
S11306109F908F9008950E94E2022091B70130913B
S1130620B8014091B9015091BA010E941A0A089583
S11306308130910521F481E08093BB0110C08330A7
S1130640910521F483E08093BB0109C0029721F452
S113065082E08093BB0103C081E08093BB018BB136
S11306608F7D8BB90E94AD0208956093B70170939A
S1130670B8018093B9019093BA0108956093B301CE
S11306807093B4018093B5019093B60108958F924D
S11306909F92AF92BF92CF92DF92EF92FF920F930D
S11306A01F934A015B01680179019AB190629AB97A
S11306B09BB19F7D9BB99AB19F7B9AB990E00E94B0
S11306C01803C501B4010E943503C701B6010E9495
S11306D03E031F910F91FF90EF90DF90CF90BF905A
S11306E0AF909F908F90089584E98093BC0080E040
S11306F005C091E0980F8A3F38F4892F9091BC008F
S113070094FDF7CF80E008958FEF089594EA9093D5
S1130710BC0090E005C021E0290F9A3F48F5922FD4
S11307202091BC002223BCF79091B900987F9830A7
S113073011F09031F9F490E0880F991F862B809383
S1130740BB0084E88093BC0080E005C091E0980F72
S11307508A3F90F4892F9091BC009923BCF7809133
S1130760B900887F883151F0803451F480E00895D5
S11307708FEF08958FEF08958FEF089580E0089527
S11307808FEF08951F93CF93DF93182FD62F80E018
S113079001C08C2FC1E0C80F8A3FA0F584EA809382
S11307A0BC0080E005C091E0980F8A3F68F5892F6E
S11307B09091BC009923BCF78091B900887F883060
S11307C011F0803131F7812F90E0880F991F8D2B24
S11307D08093BB0084E88093BC0080E005C091E076
S11307E0980F8A3F98F4892F9091BC009923BCF705
S11307F08091B900887F803211F0883549F40E94D5
S11308007403C7CF8FEF05C08FEF03C08FEF01C014
S113081080E0DF91CF911F9108958093BB0084E81D
S11308208093BC0080E005C091E0980F8A3F60F49B
S1130830892F9091BC009923BCF78091B900887FDF
S1130840883221F08FEF08958FEF089580E00895A6
S1130850FC0194EC9093BC0090E005C021E0290FCA
S11308609A3F50F4922F2091BC002223BCF7809130
S1130870BB00808380E008958FEF0895CF93C62F47
S113088060E00E94C20381110BC08C2F0E940D04F2
S1130890811108C00E947403882329F08FEF03C0DC
S11308A08FEF01C08FEFCF91089560E00E943E0466
S11308B00895DC0150E09FEF16C0FD01E50FF11D26
S11308C02081922738E00CC0992344F4E92FF0E00A
S11308D0EE0FFF1F21E39E2F922701C0990F315085
S11308E03111F2CF5F5F561740F3941711F08DEF7B
S11308F0089580E00895BC0180E090E00E948C0A95
S113090020E030E040E857E30E943E0B20E030E076
S11309104FE253E40E943E0B20E030E044E352E413
S11309200E94A8090895BC0180E090E00E948C0A0E
S113093020E030E040E857E30E943E0B20E030E046
S113094048EC52E40E943E0B08950F931F93CF93FB
S11309508C01C62F862F0E945504811103C0F80113
S1130960C08301C08EEFCF911F910F9108950F9313
S11309701F93CF93DF9300D01F92CDB7DEB78C01C6
S1130980CE0101960E94280481111EC0CE01029658
S11309900E94280481111AC0CE0103960E942804E3
S11309A0811116C04B8162E0CE0101960E94590468
S11309B0811110C0298130E0322F22279A81292BFE
S11309C0F8013183208307C08FEF05C08FEF03C088
S11309D08FEF01C08DEF0F900F900F90DF91CF91AB
S11309E01F910F910895AF92BF92CF92DF92EF9231
S11309F0FF920F931F93CF93DF9300D000D0CDB716
S1130A00DEB77C015B016A01222319F00CE910E6D0
S1130A1002C006E618E760E0F70180810E948603C1
S1130A20811140C0812F0E940D0481113DC0802F8F
S1130A300E940D0481113AC010E00DC061E0F7017D
S1130A4080810E948603882349F089EF90E0019712
S1130A50F1F700C000001F5F143180F3CE0101964E
S1130A600E94B704811124C0CE0103960E94B704EA
S1130A70182F81111FC00E94740381111DC0898128
S1130A809A810E947B04F50160837183828393833E
S1130A908B819C810E949304F6016083718382831D
S1130AA093830BC01FEF09C01FEF07C01FEF05C0E2
S1130AB01FEF03C01FEF01C01FEF812F0F900F9096
S1130AC00F900F90DF91CF911F910F91FF90EF90B6
S1130AD0DF90CF90BF90AF900895CF93DF9300D075
S1130AE000D0CDB7DEB7242FAE014F5F5F4F0E9419
S1130AF0F3040F900F900F900F90DF91CF91089512
S1130B00CF93DF9300D000D0CDB7DEB7242FAB0155
S1130B10BE016F5F7F4F0E94F3040F900F900F9000
S1130B200F90DF91CF9108951092C50087E68093CE
S1130B30C40088E18093C100E2ECF0E086E08083A9
S1130B4080818860808308959091C00095FFFCCFD8
S1130B508093C6000895CF93DF93EC0103C02196E0
S1130B600E94A40588818111FACFDF91CF91089565
S1130B708AB180618AB984B1826084B9A0E8B0E0A6
S1130B808C9182608C93E1E8F0E0808188608083BE
S1130B908081806180838C9180688C938081826065
S1130BA080838FE39CE990938700809386008FEB8A
S1130BB092E1909389008093880008954F925F9208
S1130BC06F927F92AF92BF92CF92DF92EF92FF9299
S1130BD00F931F93CF93DF93CDB7DEB729013A016B
S1130BE09B01AC01241935094609570989899A8959
S1130BF0AB89BC89BC01CD016A197B098C099D09AB
S1130C000E94AB0BA801970124193509460957091D
S1130C100E94CF0BA20EB31EBB201CF4B194A1946E
S1130C20B108B501BB0C880B990BDF91CF911F91D3
S1130C300F91FF90EF90DF90CF90BF90AF907F9097
S1130C406F905F904F900895E4E6F0E080818E7F8E
S1130C508083ACE7B0E08C9180648C938C918F7727
S1130C608C93EAE7F0E080818160808380818260F8
S1130C7080838081846080838C91887F8C93808141
S1130C8080628083ABE7B0E08C918E7F8C938C91F3
S1130C908D7F8C938C918B7F8C93AEE7B0E08C919D
S1130CA081608C938081806880838081806480836C
S1130CB00895AF92BF92CF92DF92EF92FF920F937B
S1130CC01F93CF93DF93C091BC01D091BD01C1307C
S1130CD0D10579F0C230D105A9F0209709F040C0C0
S1130CE080917800909179009093CD018093CC010C
S1130CF037C080917800909179009093CB018093D4
S1130D00CA012EC080917800909179009093C70118
S1130D108093C6016091C6017091C70180E090E0A4
S1130D201F921F921F9224E62F93A12CB12C6501D0
S1130D301CE2E12EFF24F39400E010E020E732E00F
S1130D4040E050E00E94DE050F900F900F900F904E
S1130D506093C2017093C3018093C4019093C50151
S1130D60CE01019663E070E00E94BB0B8093BC014E
S1130D709093BD01ECE7F0E09081987F8770892B18
S1130D8080838091CC019091CD012091CA01309152
S1130D90CB01821B930B9C0122F422273327281BAF
S1130DA0390B3093C9012093C8018091C8019091F7
S1130DB0C901C39758F12091CC013091CD018091A4
S1130DC0CA019091CB018217930780F48FEF9FEFB4
S1130DD09093CF018093CE012FEF80E792E02150D2
S1130DE080409040E1F700C0000014C081E090E032
S1130DF09093CF018093CE012FEF80E792E02150B2
S1130E0080409040E1F700C0000004C01092CF0180
S1130E101092CE01E8E8F0E0808191814091CE010A
S1130E205091CF016CE3649F9001659F300D1124B4
S1130E30820F931F91838083808191818F3A9440A4
S1130E4038F48FEA94E090938900809388000DC071
S1130E508091880090918900803C924130F08FEB22
S1130E6092E190938900809388008091C2019091CF
S1130E70C301A091C401B091C5018897A105B10532
S1130E802CF58BB180618BB980E090E0A0E8BFE3E2
S1130E9080930B0190930C01A0930D01B0930E016C
S1130EA08FEF91EE24E0815090402040E1F700C0A4
S1130EB000008BB18F7E8BB98FEF99E628E18150CA
S1130EC090402040E1F700C000000CC080E090E0BA
S1130ED0A0E8BFEB80930B0190930C01A0930D014C
S1130EE0B0930E01DF91CF911F910F91FF90EF907E
S1130EF0DF90CF90BF90AF900895CF92DF92EF92A2
S1130F00FF920F931F930E940B036B017C0160936C
S1130F10BE017093BF018093C0019093C10120E092
S1130F2030E0A9010E94150A882364F4F7FAF094CA
S1130F30F7F8F094C092BE01D092BF01E092C001D4
S1130F40F092C1016091BE017091BF018091C00116
S1130F509091C10101E512E022E043E00E943E0CC1
S1130F60C8019F930F938FE091E09F938F938DE33C
S1130F7092E09F938F930E945E0C8DE392E00E9417
S1130F80AB052FEF80E792E0215080409040E1F7DD
S1130F9000C000000F900F900F900F900F900F90D3
S1130FA01F910F91FF90EF90DF90CF9008950F93D2
S1130FB01F9360E784ED91E00E94A504882369F003
S1130FC089E2EFE1F1E0ADE3B2E001900D928A95A0
S1130FD0E1F78DE392E00E94AB0541E060ED71E042
S1130FE084ED91E00E946D05811126C06091D001CD
S1130FF07091D1018091D2019091D30101E512E069
S113100022E043E00E943E0CC8019F930F9388E4C2
S113101091E09F938F938DE392E09F938F930E942F
S11310205E0C8DE392E00E94AB050F900F900F9041
S11310300F900F900F900DC087E0E8E5F1E0ADE36D
S1131040B2E001900D928A95E1F78DE392E00E945F
S1131050AB0541E065ED71E084ED91E00E9480050F
S1131060811126C06091D5017091D6018091D7017C
S11310709091D80101E512E022E043E00E943E0C89
S1131080C8019F930F938FE591E09F938F938DE316
S113109092E09F938F930E945E0C8DE392E00E94F6
S11310A0AB050F900F900F900F900F900F900DC005
S11310B087E0E8E5F1E0ADE3B2E001900D928A95B6
S11310C0E1F78DE392E00E94AB051F910F91089523
S11310D0CF93DF93EC0103C00E94A405219688817D
S11310E08111FACFDF91CF9108952F923F924F92C1
S11310F05F926F927F928F929F92AF92BF92CF92A4
S1131100DF92EF92FF920F931F93CF93DF93CDB7AC
S1131110DEB7CC56D1090FB6F894DEBF0FBECDBFF3
S1131120A9962CAF3DAF4EAF5FAFA997AD96ECAE8D
S1131130FDAE0EAF1FAFAD97CB57DF4F3880C5580C
S1131140D040CA57DF4F2880C658D0400E948E0A2C
S11311509E012F5F3F4F2901890122E043E00E9455
S11311603E0C4E0135E1830E911C840122E043E0E4
S1131170A9966CAD7DAD8EAD9FADA9970E943E0C36
S11311807E0189E2E80EF11C870122E043E0AD967E
S11311906CAD7DAD8EAD9FADAD970E943E0C3E0112
S11311A09DE3690E711C830122E043E0C601B50191
S11311B00E943E0C6E0121E5C20ED11C860122E084
S11311C043E0CF57DF4F688179818A819B81C15881
S11311D0D0400E943E0CDF92CF927F926F92FF929A
S11311E0EF929F928F925F924F9281E791E09F934B
S11311F08F932F923F920E945E0C832D922D0E941A
S113120068080FB6F894DEBF0FBECDBFC459DF4FD8
S11312100FB6F894DEBF0FBECDBFDF91CF911F9103
S11312200F91FF90EF90DF90CF90BF90AF909F9081
S11312308F907F906F905F904F903F902F90089584
S11312408BB188608BB92FEF83EC99E021508040FB
S11312509040E1F700C000008BB1877F8BB92FEF7E
S113126080E792E0215080409040E1F700C0000008
S113127008950E94B8050E9494050E9424060091D6
S11312800601109107012091080130910901409154
S11312900201509103016091040170910501809154
S11312A00A010E9447038AB188608AB90E947D07B7
S11312B00E9459060E94D7076091C2017091C30130
S11312C08091C4019091C501A090D001B090D1014A
S11312D0C090D201D090D301E090D501F090D60116
S11312E00091D7011091D8012091BE013091BF0126
S11312F04091C0015091C101E9EDF1E0FF93EF93FA
S1131300E0910E01EF93E0910D01EF93E0910C0158
S1131310EF93E0910B01EF930E9475086091BE0179
S11313207091BF018091C0019091C1010F900F9005
S11313300F900F900F900F902DEC3CEC4CE45EE37B
S11313400E94150A88230CF0B1CF0E942009AECF69
S11313505058BB27AA270E94C0090C94040B0E9472
S1131360F60A38F00E94FD0A20F039F49F3F19F480
S113137026F40C94F30A0EF4E095E7FB0C94ED0AC2
S1131380E92F0E94150B58F3BA17620773078407F5
S1131390950720F079F4A6F50C94370B0EF4E0953C
S11313A00B2EBA2FA02D0B01B90190010C01CA011B
S11313B0A0011124FF27591B99F0593F50F4503EC6
S11313C068F11A16F040A22F232F342F4427585FB8
S11313D0F3CF469537952795A795F0405395C9F7D0
S11313E07EF41F16BA0B620B730B840BBAF0915088
S11313F0A1F0FF0FBB1F661F771F881FC2F70EC027
S1131400BA0F621F731F841F48F4879577956795F9
S1131410B795F7959E3F08F0B0CF9395880F08F0E5
S11314209927EE0F9795879508950E94C90A08F4A5
S113143081E008950E942E0A0C94040B0E94FD0A78
S113144058F00E94F60A40F029F45F3F29F00C940A
S1131450ED0A51110C94380B0C94F30A0E94150BED
S113146068F39923B1F3552391F3951B550BBB27CF
S1131470AA2762177307840738F09F5F5F4F220F14
S1131480331F441FAA1FA9F335D00E2E3AF0E0E80B
S113149032D091505040E695001CCAF72BD0FE2F55
S11314A029D0660F771F881FBB1F261737074807E9
S11314B0AB07B0E809F0BB0B802DBF01FF279358A1
S11314C05F4F3AF09E3F510578F00C94ED0A0C946E
S11314D0380B5F3FE4F3983ED4F386957795679590
S11314E0B795F7959F5FC9F7880F911D96958795D6
S11314F097F90895E1E0660F771F881FBB1F6217F5
S113150073078407BA0720F0621B730B840BBA0BB2
S1131510EE1F88F7E0950895E89409C097FB3EF420
S113152090958095709561957F4F8F4F9F4F99232C
S1131530A9F0F92F96E9BB279395F69587957795AA
S11315406795B795F111F8CFFAF4BB0F11F460FF6A
S11315501BC06F5F7F4F8F4F9F4F16C0882311F0C2
S113156096E911C0772321F09EE8872F762F05C0D6
S1131570662371F096E8862F70E060E02AF09A9571
S1131580660F771F881FDAF7880F9695879597F966
S11315900895990F0008550FAA0BE0E8FEEF161600
S11315A01706E807F907C0F012161306E407F50753
S11315B098F0621B730B840B950B39F40A2661F0C7
S11315C0232B242B252B21F408950A2609F4A1406A
S11315D0A6958FEF811D811D089597F99F6780E877
S11315E070E060E008959FEF80EC089500240A9471
S11315F01616170618060906089500240A941216EA
S11316001306140605060895092E0394000C11F41C
S1131610882352F0BB0F40F4BF2B11F460FF04C0C9
S11316206F5F7F4F8F4F9F4F089557FD9058440F22
S1131630551F59F05F3F71F04795880F97FB991F2D
S113164061F09F3F79F087950895121613061406EA
S1131650551FF2CF4695F1DF08C016161706180677
S1131660991FF1CF86957105610508940895E89452
S1131670BB2766277727CB0197F908950E94510B62
S11316800C94040B0E94F60A38F00E94FD0A20F024
S1131690952311F00C94ED0A0C94F30A11240C9484
S11316A0380B0E94150B70F3959FC1F3950F50E012
S11316B0551F629FF001729FBB27F00DB11D639F00
S11316C0AA27F00DB11DAA1F649F6627B00DA11DA6
S11316D0661F829F2227B00DA11D621F739FB00D4C
S11316E0A11D621F839FA00D611D221F749F3327BC
S11316F0A00D611D231F849F600D211D822F762F55
S11317006A2F11249F5750409AF0F1F088234AF031
S1131710EE0FFF1FBB1F661F771F881F915050409D
S1131720A9F79E3F510580F00C94ED0A0C94380BF8
S11317305F3FE4F3983ED4F3869577956795B79524
S1131740F795E7959F5FC1F7FE2B880F911D96953E
S1131750879597F90895DB018F939F930E94EE0B71
S1131760BF91AF91A29F800D911DA39F900DB29F39
S1131770900D1124089597FB072E16F4009407D0BA
S113178077FD09D00E94F90B07FC05D03EF4909533
S113179081959F4F0895709561957F4F0895052E0B
S11317A097FB1EF400940E94E60B57FD07D00E949D
S11317B00D0C07FC03D04EF40C94E60B50954095A9
S11317C0309521953F4F4F4F5F4F089590958095E9
S11317D0709561957F4F8F4F9F4F08950E942F0CF6
S11317E0A59F900DB49F900DA49F800D911D112471
S11317F00895AA1BBB1B51E107C0AA1FBB1FA61754
S1131800B70710F0A61BB70B881F991F5A95A9F7A5
S113181080959095BC01CD010895A1E21A2EAA1BD2
S1131820BB1BFD010DC0AA1FBB1FEE1FFF1FA2178C
S1131830B307E407F50720F0A21BB30BE40BF50B89
S1131840661F771F881F991F1A9469F76095709512
S1131850809590959B01AC01BD01CF010895A29F95
S1131860B001B39FC001A39F700D811D1124911D70
S1131870B29F700D811D1124911D0895EF920F9355
S11318801F93CF93DF93E80147FD02C034E001C00A
S113189034E1042E000C550B57FF03C051954195BC
S11318A05109E32E022F242FAE010E94610ECE01B6
S11318B0DF91CF911F910F91EF900895AEE0B0E0CA
S11318C0E4E6FCE00C9451110D891E8986E08C83BA
S11318D01A8309838FEF9FE79E838D83AE01475E52
S11318E05F4F6F89788DCE0101960E94800CEF8145
S11318F0F885E00FF11F10822E96E4E00C946D1130
S1131900ABE0B0E0E6E8FCE00C9443116C017B0131
S11319108A01FC0117821682838181FFCCC1CE012A
S113192001963C01F6019381F70193FD859193FFA4
S113193081917F01882309F4BAC1853239F493FD7A
S1131940859193FF81917F01853229F4B60190E05E
S11319500E94A910E7CF912C212C312CFFE1F31523
S1131960D8F08B3279F038F4803279F08332A1F4F4
S1131970232D20611DC08D3261F0803369F4232D45
S1131980216016C0832D8260382EE32DE4603E2E44
S11319902AC0F32DF8601DC037FC2DC020ED280FA0
S11319A02A3040F08E32B9F436FC81C1232D2064F4
S11319B0322E19C036FE06C08AE0989E200D1124EE
S11319C0922E11C0EAE02E9E200D1124222EF32D1A
S11319D0F0623F2E08C08C3621F4832D8068382EA7
S11319E002C0883641F4F70193FD859193FF8191FC
S11319F07F018111B3CF982F9F7D9554933028F4A4
S1131A000C5F1F4F9FE399830DC0833631F08337FA
S1131A1071F0833509F059C021C0F80180818983B0
S1131A200E5F1F4F88248394912C530113C0280107
S1131A30F2E04F0E511CF801A080B18036FE03C0C5
S1131A40692D70E002C06FEF7FEFC5010E949E1008
S1131A504C018201F32DFF773F2E16C0280122E0AE
S1131A60420E511CF801A080B18036FE03C0692DDE
S1131A7070E002C06FEF7FEFC5010E9493104C012C
S1131A80F32DF0683F2E820133FC1BC0822D90E0C1
S1131A9088169906B0F4B60180E290E00E94A9107D
S1131AA02A94F4CFF50137FC859137FE81915F01CB
S1131AB0B60190E00E94A91021102A9421E0821A14
S1131AC091088114910471F7E8C0843611F08936C5
S1131AD041F5F80137FE07C06081718182819381ED
S1131AE00C5F1F4F08C060817181072E000C880BAA
S1131AF0990B0E5F1F4FF32DFF763F2E97FF09C002
S1131B0090958095709561957F4F8F4F9F4FF068AA
S1131B103F2E2AE030E0A3010E94E510882E8618AB
S1131B2045C0853731F4232D2F7EB22E2AE030E0D4
S1131B3025C0932D997FB92E8F36C1F018F48835BE
S1131B4079F0B5C0803719F0883721F0B0C0E92F9B
S1131B50E061BE2EB4FE0DC0FB2DF460BF2E09C0A3
S1131B6034FE0AC0292F2660B22E06C028E030E0D9
S1131B7005C020E130E002C020E132E0F801B7FE08
S1131B8007C060817181828193810C5F1F4F06C001
S1131B906081718180E090E00E5F1F4FA3010E947D
S1131BA0E510882E8618FB2DFF773F2E36FE0DC0DC
S1131BB0232D2E7FA22E891458F434FE0BC032FC40
S1131BC009C0832D8E7EA82E05C0B82CA32C03C07B
S1131BD0B82C01C0B92CA4FE0FC0FE01E80DF11D04
S1131BE08081803321F49A2D997EA92E09C0A2FE0A
S1131BF006C0B394B39404C08A2D867809F0B394D4
S1131C00A3FC11C0A0FE06C0B21488F4280C922CC8
S1131C109B180EC0B21460F4B60180E290E00E94FA
S1131C20A910B394F7CFB21418F42B1802C0982C4F
S1131C30212CA4FE10C0B60180E390E00E94A910FC
S1131C40A2FE17C0A1FC03C088E790E002C088E5AB
S1131C5090E0B6010CC08A2D867859F0A1FE02C02E
S1131C608BE201C080E2A7FC8DE2B60190E00E9405
S1131C70A910891438F4B60180E390E00E94A910F9
S1131C809A94F7CF8A94F301E80DF11D8081B6018F
S1131C9090E00E94A9108110F5CF222009F442CED1
S1131CA0B60180E290E00E94A9102A94F6CFF601D2
S1131CB08681978102C08FEF9FEF2B96E2E10C940F
S1131CC05F11A9E0B0E0E7E6FEE00C9449116A0177
S1131CD0122FB02E2BE3201720F0FF24F394F00EE4
S1131CE002C02CE3F22E0F2D27E0AE014F5F5F4FB1
S1131CF00E94BB0FBC014981842F8970813031F06F
S1131D00E1FC06C0E0FE06C090E205C09DE203C00F
S1131D109BE201C090E05E2D507143FF3CC09111E5
S1131D2002C083E001C084E0811718F4212F281B2E
S1131D3001C020E051110BC0F601822F30E288234C
S1131D4019F031938150FBCFC20ED11C20E09923AE
S1131D5029F0D6019C93F60131966F01C6010396D2
S1131D60E2FE0AC03EE4D6013C9341E411964C9352
S1131D70119712963C9306C03EE6F601308341E685
S1131D8041833283FC01322F40E2332309F442C001
S1131D9041933150FACF42FF44C0911102C083E015
S1131DA001C084E0811718F4212F281B01C020E012
S1131DB051110BC0F601822F30E2882319F03193C0
S1131DC08150FBCFC20ED11C20E0992329F0D6010B
S1131DD09C93F60131966F01C6010396E2FE0BC097
S1131DE039E4D6013C933EE411963C93119736E4D2
S1131DF012963C9307C039E6F60130833EE6318300
S1131E0036E63283FC01322F40E2332319F041934A
S1131E103150FBCFFC01E20FF11D10828EEF9FEFDA
S1131E20A6C021E030E0911102C020E030E0161697
S1131E3017061CF4FB01319602C0E1E0F0E02E0F1E
S1131E403F1FBB2021F0EB2DF0E0319602C0E0E013
S1131E50F0E02E0F3F1FE12FF0E02E173F071CF498
S1131E60121B212F01C020E08E2D887159F4F60138
S1131E70822F30E2882319F031938150FBCFC20EB8
S1131E80D11C20E0992329F0D6019C93F6013196C8
S1131E906F0151110BC0F601822F90E3882319F0D2
S1131EA091938150FBCFC20ED11C20E00F2D060F61
S1131EB09A81342F307144FF03C0913309F40150E7
S1131EC0101624F4093018F008E001C001E0AB0159
S1131ED077FF02C040E050E0FB01E41BF50BA1E0FA
S1131EE0B0E0AC0FBD1FEA0FFB1F8EE2A82E4B0122
S1131EF0801A91080B2D10E01195019511094F3F9F
S1131F00BFEF5B0721F4D601AC9211966D01641703
S1131F1075072CF08416950614F4818101C080E3C2
S1131F20415051093196D60111967D014017510750
S1131F3024F0D6018C936701E2CF6417750739F456
S1131F40963320F4953319F4311101C081E3F6017D
S1131F508083F701822F90E2882319F091938150B6
S1131F60FBCFF701E20FF11D108280E090E029968B
S1131F70ECE00C946511283008F027E03327DA01EF
S1131F80990F311D87FD916000966105710539F443
S1131F9032602E5F3D9330E32A95E1F708959F3F29
S1131FA030F080387105610509F03C5F3C5F3D937A
S1131FB0913008F08068911DDF93CF931F930F93A6
S1131FC0FF92EF92192F987F9695E92F9695969503
S1131FD0E90FFF27EE53FF4F99273327EE24FF2401
S1131FE0A701E70105900894079428F4360FE71E2B
S1131FF0F81E491F511D660F771F881F991F0694ED
S1132000A1F70590079428F4E70EF81E491F561F00
S1132010C11D770F881F991F661F0694A1F70590AD
S1132020079428F4F80E491F561FC71FD11D880FA7
S1132030991F661F771F0694A1F70590079420F453
S1132040490F561FC71FD81F990F661F771F881F78
S11320500694A9F784911095177041F0D695C79509
S113206057954795F794E7941A95C1F7E8E6F0E099
S113207068941590159135916591959105907FE23D
S11320807395E118F10A430B560BC90BD009C0F73D
S1132090E10CF11E431F561FC91FD01D7EF470337F
S11320A011F48A95E6CFE894015030F0080F0AF451
S11320B00027021708F4202F2395022F7A3328F0E3
S11320C079E37D932A95E9F710C07D932A9589F6E3
S11320D0069497956795379517951794E118F10A23
S11320E0430B560BC90BD00998F023957E91739539
S11320F07A3308F070E37C932013B8F77E91706113
S11321007D9330F0839571E37D9370E32A95E1F735
S11321101124EF90FF900F911F91CF91DF91992798
S113212087FD90950895FC01059061507040011061
S1132130D8F7809590958E0F9F1F0895FC016150EC
S1132140704001900110D8F7809590958E0F9F1FD5
S113215008950F931F93CF93DF93FB01238121FDF8
S113216003C08FEF9FEF2CC022FF16C0468157811A
S1132170248135814217530744F4A081B1819D0124
S11321802F5F3F4F318320838C93268137812F5FCC
S11321903F4F3783268314C08B01EC01FB0100847D
S11321A0F185E02D0995892BE1F6D80116968D91DC
S11321B09C911797019617969C938E931697CE0130
S11321C0DF91CF911F910F910895FA01AA2728302A
S11321D051F1203181F1E8946F936E7F6E5F7F4FF0
S11321E08F4F9F4FAF4FB1E03ED0B4E03CD0670F6C
S11321F0781F891F9A1FA11D680F791F8A1F911DBF
S1132200A11D6A0F711D811D911DA11D20D009F40E
S113221068943F912AE0269F11243019305D319350
S1132220DEF6CF010895462F4770405D4193B3E039
S11322300FD0C9F7F6CF462F4F70405D4A3318F0E0
S1132240495D31FD4052419302D0A9F7EACFB4E091
S1132250A6959795879577956795BA95C9F7009749
S11322606105710508959B01AC010A2E06945795EA
S1132270479537952795BA95C9F7620F731F841F41
S1132280951FA01D08952F923F924F925F926F92D7
S11322907F928F929F92AF92BF92CF92DF92EF92F2
S11322A0FF920F931F93CF93DF93CDB7DEB7CA1B73
S11322B0DB0B0FB6F894DEBF0FBECDBF09942A889E
S11322C0398848885F846E847D848C849B84AA8446
S11322D0B984C884DF80EE80FD800C811B81AA81D3
S11322E0B981CE0FD11D0FB6F894DEBF0FBECDBF9E
S10B22F0ED010895F894FFCFFD
S11322F8FFFF7A65C648A491830001000080BF5798
S113230865696768743A202573206B670A0D004372
S11323186F756C646E277420696E697469616C6981
S11323287A65205348544333202E2E2E2061626F41
S11323387274696E67210A0054656D702069733A76
S113234820257320430A0D004552524F520A004873
S1132358756D616E6974792069733A2025730A0D65
S11323680025732C25732C25732C25732C25730AAF
S10523780D0052
S9030000FC
